:0400000013EF00F00A
:0E000800B8A00AEF00F0B89069EC00F010000C
:10001800AFA012EF00F0AF90C2EC00F0100023ED9B
:1000280000F029ED00F042ED00F04CED00F0C37651
:100038005DEC00F05DEC00F0C3761BEF00F0000112
:10004800600EAD6F020EB16F12000401D36BC3874F
:10005800286BCB970401CE6B006BC687BE870187E0
:100068000401CF6B086BC78909890401D36B286B1E
:10007800CB8529850401D06A106A12000201030E9B
:100088003E6F02010C0E3F6F02012A0E406F1200F4
:10009800D68A0301639168816C81D690AF909F8066
:1000A800D692B490A480D694B890A880D68ED68CD8
:1000B8001200FA0E016EF90E006E0000002E61EFBC
:1000C80000F0012E5FEF00F01200C86AC080C092F5
:1000D800C094C096C098C09AC09CC08E5DEC00F0D9
:1000E800C86AC090C082C094C096C098C09AC08C9C
:1000F800C09E5DEC00F0C86AC090C092C084C096F3
:10010800C098C08AC09CC09E5DEC00F0C86AC090D0
:10011800C092C094C086C088C09AC09CC09EC06A65
:100128005DEC00F0C86AC090C092C094C086C088D8
:10013800C09AC09CC09E5DEC00F0C86AC090C09296
:10014800C084C096C098C08AC09CC09E5DEC00F078
:10015800C86AC090C082C094C096C098C09AC08C2B
:10016800C09E5DEC00F0C86AC080C092C094C09682
:10017800C098C09AC09CC08EC06A1200C86AC0806D
:10018800C092C094C096C098C09AC09CC08E5DECC6
:1001980000F0C86AC090C082C094C096C098C09A47
:1001A800C08CC09E5DEC00F0C86AC090C092C0844C
:1001B800C096C098C08AC09CC09E5DEC00F0C86A1A
:1001C800C090C092C094C086C088C09AC09CC09E8F
:1001D800C06A5DEC00F0C86AC090C092C094C08646
:1001E800C088C09AC09CC09E5DEC00F0C86AC090F0
:1001F800C092C084C096C098C08AC09CC09E5DEC66
:1002080000F0C86AC090C082C094C096C098C09AD6
:10021800C08CC09E5DEC00F0C86AC080C092C094DB
:10022800C096C098C09AC09CC08EC06AC86AC08078
:10023800C092C094C096C098C09AC09CC08E5DEC15
:1002480000F0C86AC090C082C094C096C098C09A96
:10025800C08CC09E5DEC00F0C86AC090C092C0849B
:10026800C096C098C08AC09CC09E5DEC00F0C86A69
:10027800C090C092C094C086C088C09AC09CC09EDE
:10028800C06A5DEC00F0C86AC090C092C094C08695
:10029800C088C09AC09CC09E5DEC00F0C86AC0903F
:1002A800C092C084C096C098C08AC09CC09E5DECB5
:1002B80000F0C86AC090C082C094C096C098C09A26
:1002C800C08CC09E5DEC00F0C86AC080C092C0942B
:1002D800C096C098C09AC09CC08EC06AC86AC080C8
:1002E800C092C094C096C098C09AC09CC08E5DEC65
:1002F80000F0C86AC090C082C094C096C098C09AE6
:10030800C08CC09E5DEC00F0C86AC090C092C084EA
:10031800C096C098C08AC09CC09E5DEC00F0C86AB8
:10032800C090C092C094C086C088C09AC09CC09E2D
:10033800C06A5DEC00F0C86AC090C092C094C086E4
:10034800C088C09AC09CC09E5DEC00F0C86AC0908E
:10035800C092C084C096C098C08AC09CC09E5DEC04
:1003680000F0C86AC090C082C094C096C098C09A75
:10037800C08CC09E5DEC00F0C86AC080C092C0947A
:10038800C096C098C09AC09CC08EC06AC86AC08017
:10039800C092C094C096C098C09AC09CC08E5DECB4
:1003A80000F0C86AC090C082C094C096C098C09A35
:1003B800C08CC09E5DEC00F0C86AC090C092C0843A
:1003C800C096C098C08AC09CC09E5DEC00F0C86A08
:1003D800C090C092C094C086C088C09AC09CC09E7D
:1003E800C06A5DEC00F0C86AC090C092C094C08634
:1003F800C088C09AC09CC09E5DEC00F0C86AC090DE
:10040800C092C084C096C098C08AC09CC09E5DEC53
:1004180000F0C86AC090C082C094C096C098C09AC4
:10042800C08CC09E5DEC00F0C86AC080C092C094C9
:10043800C096C098C09AC09CC08EC06AC86AC08066
:10044800C092C094C096C098C09AC09CC08E5DEC03
:1004580000F0C86AC090C082C094C096C098C09A84
:10046800C08CC09E5DEC00F0C86AC090C092C08489
:10047800C096C098C08AC09CC09E5DEC00F0C86A57
:10048800C090C092C094C086C088C09AC09CC09ECC
:10049800C06A5DEC00F0C86AC090C092C094C08683
:1004A800C088C09AC09CC09E5DEC00F0C86AC0902D
:1004B800C092C084C096C098C08AC09CC09E5DECA3
:1004C80000F0C86AC090C082C094C096C098C09A14
:1004D800C08CC09E5DEC00F0C86AC080C092C09419
:1004E800C096C098C09AC09CC08EC06A1200C86AE4
:1004F800C080C082C084C086C088C08AC08CC08EBC
:020508001200DF
:020000040030CA
:10000000EC0D27C79FFFFFFFFFFFFFFFFFFFFFFF75
:10001000FFFFFFFFFFFFFFFFFFFFFFFFFFFFFFFFF0
:03002000FFFFFFE0
:00000001FF
